{
  "contractName": "work",
  "abi": [
    {
      "inputs": [],
      "stateMutability": "nonpayable",
      "type": "constructor"
    },
    {
      "inputs": [],
      "name": "name",
      "outputs": [
        {
          "internalType": "string",
          "name": "",
          "type": "string"
        }
      ],
      "stateMutability": "view",
      "type": "function",
      "constant": true
    },
    {
      "inputs": [
        {
          "internalType": "uint256",
          "name": "",
          "type": "uint256"
        }
      ],
      "name": "ngolist",
      "outputs": [
        {
          "internalType": "uint256",
          "name": "id",
          "type": "uint256"
        },
        {
          "internalType": "string",
          "name": "ngoname",
          "type": "string"
        },
        {
          "internalType": "address",
          "name": "owner",
          "type": "address"
        },
        {
          "internalType": "uint256",
          "name": "amount",
          "type": "uint256"
        },
        {
          "internalType": "uint256",
          "name": "donated",
          "type": "uint256"
        },
        {
          "internalType": "bool",
          "name": "donation",
          "type": "bool"
        }
      ],
      "stateMutability": "view",
      "type": "function",
      "constant": true
    },
    {
      "inputs": [],
      "name": "pcount",
      "outputs": [
        {
          "internalType": "uint256",
          "name": "",
          "type": "uint256"
        }
      ],
      "stateMutability": "view",
      "type": "function",
      "constant": true
    },
    {
      "inputs": [
        {
          "internalType": "uint256",
          "name": "_amount",
          "type": "uint256"
        },
        {
          "internalType": "string",
          "name": "_name",
          "type": "string"
        }
      ],
      "name": "create",
      "outputs": [],
      "stateMutability": "nonpayable",
      "type": "function"
    },
    {
      "inputs": [],
      "name": "getcount",
      "outputs": [
        {
          "internalType": "uint256",
          "name": "",
          "type": "uint256"
        }
      ],
      "stateMutability": "view",
      "type": "function",
      "constant": true
    },
    {
      "inputs": [
        {
          "internalType": "uint256",
          "name": "_id",
          "type": "uint256"
        }
      ],
      "name": "getdata",
      "outputs": [
        {
          "components": [
            {
              "internalType": "uint256",
              "name": "id",
              "type": "uint256"
            },
            {
              "internalType": "string",
              "name": "ngoname",
              "type": "string"
            },
            {
              "internalType": "address",
              "name": "owner",
              "type": "address"
            },
            {
              "internalType": "uint256",
              "name": "amount",
              "type": "uint256"
            },
            {
              "internalType": "uint256",
              "name": "donated",
              "type": "uint256"
            },
            {
              "internalType": "bool",
              "name": "donation",
              "type": "bool"
            }
          ],
          "internalType": "struct work.ngo",
          "name": "",
          "type": "tuple"
        }
      ],
      "stateMutability": "view",
      "type": "function",
      "constant": true
    },
    {
      "inputs": [
        {
          "internalType": "uint256",
          "name": "_id",
          "type": "uint256"
        }
      ],
      "name": "donate",
      "outputs": [],
      "stateMutability": "payable",
      "type": "function",
      "payable": true
    }
  ],
  "bytecode": "0x608060405260006001553480156200001657600080fd5b506040518060400160405280601281526020017f616268697368656b27732070726f6a656374000000000000000000000000000081525060009080519060200190620000649291906200006b565b5062000180565b82805462000079906200014a565b90600052602060002090601f0160209004810192826200009d5760008555620000e9565b82601f10620000b857805160ff1916838001178555620000e9565b82800160010185558215620000e9579182015b82811115620000e8578251825591602001919060010190620000cb565b5b509050620000f89190620000fc565b5090565b5b8082111562000117576000816000905550600101620000fd565b5090565b7f4e487b7100000000000000000000000000000000000000000000000000000000600052602260045260246000fd5b600060028204905060018216806200016357607f821691505b602082108114156200017a57620001796200011b565b5b50919050565b6110ae80620001906000396000f3fe6080604052600436106100705760003560e01c8063146af82b1161004e578063146af82b146101065780631ab2cf21146101315780639b24b5d31461015c578063f14faf6f1461019e57610070565b80630118fa491461007557806306fdde031461009e5780630ad2b739146100c9575b600080fd5b34801561008157600080fd5b5061009c60048036038101906100979190610b3a565b6101ba565b005b3480156100aa57600080fd5b506100b361032a565b6040516100c09190610c1e565b60405180910390f35b3480156100d557600080fd5b506100f060048036038101906100eb9190610c40565b6103b8565b6040516100fd9190610dab565b60405180910390f35b34801561011257600080fd5b5061011b61050c565b6040516101289190610ddc565b60405180910390f35b34801561013d57600080fd5b50610146610516565b6040516101539190610ddc565b60405180910390f35b34801561016857600080fd5b50610183600480360381019061017e9190610c40565b61051c565b60405161019596959493929190610e15565b60405180910390f35b6101b860048036038101906101b39190610c40565b61060d565b005b60008151116101fe576040517f08c379a00000000000000000000000000000000000000000000000000000000081526004016101f590610ec9565b60405180910390fd5b6000821161020b57600080fd5b6040518060c0016040528060015481526020018281526020013373ffffffffffffffffffffffffffffffffffffffff168152602001838152602001600081526020016000151581525060026000600154815260200190815260200160002060008201518160000155602082015181600101908051906020019061028f9291906108b9565b5060408201518160020160006101000a81548173ffffffffffffffffffffffffffffffffffffffff021916908373ffffffffffffffffffffffffffffffffffffffff160217905550606082015181600301556080820151816004015560a08201518160050160006101000a81548160ff0219169083151502179055509050506001600081548092919061032190610f18565b91905055505050565b6000805461033790610f90565b80601f016020809104026020016040519081016040528092919081815260200182805461036390610f90565b80156103b05780601f10610385576101008083540402835291602001916103b0565b820191906000526020600020905b81548152906001019060200180831161039357829003601f168201915b505050505081565b6103c061093f565b6000600260008481526020019081526020016000206040518060c0016040529081600082015481526020016001820180546103fa90610f90565b80601f016020809104026020016040519081016040528092919081815260200182805461042690610f90565b80156104735780601f1061044857610100808354040283529160200191610473565b820191906000526020600020905b81548152906001019060200180831161045657829003601f168201915b505050505081526020016002820160009054906101000a900473ffffffffffffffffffffffffffffffffffffffff1673ffffffffffffffffffffffffffffffffffffffff1673ffffffffffffffffffffffffffffffffffffffff16815260200160038201548152602001600482015481526020016005820160009054906101000a900460ff161515151581525050905080915050919050565b6000600154905090565b60015481565b600260205280600052604060002060009150905080600001549080600101805461054590610f90565b80601f016020809104026020016040519081016040528092919081815260200182805461057190610f90565b80156105be5780601f10610593576101008083540402835291602001916105be565b820191906000526020600020905b8154815290600101906020018083116105a157829003601f168201915b5050505050908060020160009054906101000a900473ffffffffffffffffffffffffffffffffffffffff16908060030154908060040154908060050160009054906101000a900460ff16905086565b6000600260008381526020019081526020016000206040518060c00160405290816000820154815260200160018201805461064790610f90565b80601f016020809104026020016040519081016040528092919081815260200182805461067390610f90565b80156106c05780601f10610695576101008083540402835291602001916106c0565b820191906000526020600020905b8154815290600101906020018083116106a357829003601f168201915b505050505081526020016002820160009054906101000a900473ffffffffffffffffffffffffffffffffffffffff1673ffffffffffffffffffffffffffffffffffffffff1673ffffffffffffffffffffffffffffffffffffffff16815260200160038201548152602001600482015481526020016005820160009054906101000a900460ff16151515158152505090506000341161075d57600080fd5b600081604001519050670de0b6b3a76400003461077a9190610ff1565b8260800181815161078b9190611022565b915081815250508160600151826080015111156107b45760018260a00190151590811515815250505b81600260008581526020019081526020016000206000820151816000015560208201518160010190805190602001906107ee9291906108b9565b5060408201518160020160006101000a81548173ffffffffffffffffffffffffffffffffffffffff021916908373ffffffffffffffffffffffffffffffffffffffff160217905550606082015181600301556080820151816004015560a08201518160050160006101000a81548160ff0219169083151502179055509050508073ffffffffffffffffffffffffffffffffffffffff166108fc349081150290604051600060405180830381858888f193505050501580156108b3573d6000803e3d6000fd5b50505050565b8280546108c590610f90565b90600052602060002090601f0160209004810192826108e7576000855561092e565b82601f1061090057805160ff191683800117855561092e565b8280016001018555821561092e579182015b8281111561092d578251825591602001919060010190610912565b5b50905061093b919061098d565b5090565b6040518060c001604052806000815260200160608152602001600073ffffffffffffffffffffffffffffffffffffffff16815260200160008152602001600081526020016000151581525090565b5b808211156109a657600081600090555060010161098e565b5090565b6000604051905090565b600080fd5b600080fd5b6000819050919050565b6109d1816109be565b81146109dc57600080fd5b50565b6000813590506109ee816109c8565b92915050565b600080fd5b600080fd5b6000601f19601f8301169050919050565b7f4e487b7100000000000000000000000000000000000000000000000000000000600052604160045260246000fd5b610a47826109fe565b810181811067ffffffffffffffff82111715610a6657610a65610a0f565b5b80604052505050565b6000610a796109aa565b9050610a858282610a3e565b919050565b600067ffffffffffffffff821115610aa557610aa4610a0f565b5b610aae826109fe565b9050602081019050919050565b82818337600083830152505050565b6000610add610ad884610a8a565b610a6f565b905082815260208101848484011115610af957610af86109f9565b5b610b04848285610abb565b509392505050565b600082601f830112610b2157610b206109f4565b5b8135610b31848260208601610aca565b91505092915050565b60008060408385031215610b5157610b506109b4565b5b6000610b5f858286016109df565b925050602083013567ffffffffffffffff811115610b8057610b7f6109b9565b5b610b8c85828601610b0c565b9150509250929050565b600081519050919050565b600082825260208201905092915050565b60005b83811015610bd0578082015181840152602081019050610bb5565b83811115610bdf576000848401525b50505050565b6000610bf082610b96565b610bfa8185610ba1565b9350610c0a818560208601610bb2565b610c13816109fe565b840191505092915050565b60006020820190508181036000830152610c388184610be5565b905092915050565b600060208284031215610c5657610c556109b4565b5b6000610c64848285016109df565b91505092915050565b610c76816109be565b82525050565b600082825260208201905092915050565b6000610c9882610b96565b610ca28185610c7c565b9350610cb2818560208601610bb2565b610cbb816109fe565b840191505092915050565b600073ffffffffffffffffffffffffffffffffffffffff82169050919050565b6000610cf182610cc6565b9050919050565b610d0181610ce6565b82525050565b60008115159050919050565b610d1c81610d07565b82525050565b600060c083016000830151610d3a6000860182610c6d565b5060208301518482036020860152610d528282610c8d565b9150506040830151610d676040860182610cf8565b506060830151610d7a6060860182610c6d565b506080830151610d8d6080860182610c6d565b5060a0830151610da060a0860182610d13565b508091505092915050565b60006020820190508181036000830152610dc58184610d22565b905092915050565b610dd6816109be565b82525050565b6000602082019050610df16000830184610dcd565b92915050565b610e0081610ce6565b82525050565b610e0f81610d07565b82525050565b600060c082019050610e2a6000830189610dcd565b8181036020830152610e3c8188610be5565b9050610e4b6040830187610df7565b610e586060830186610dcd565b610e656080830185610dcd565b610e7260a0830184610e06565b979650505050505050565b7f456e7465722061206e616d650000000000000000000000000000000000000000600082015250565b6000610eb3600c83610ba1565b9150610ebe82610e7d565b602082019050919050565b60006020820190508181036000830152610ee281610ea6565b9050919050565b7f4e487b7100000000000000000000000000000000000000000000000000000000600052601160045260246000fd5b6000610f23826109be565b91507fffffffffffffffffffffffffffffffffffffffffffffffffffffffffffffffff821415610f5657610f55610ee9565b5b600182019050919050565b7f4e487b7100000000000000000000000000000000000000000000000000000000600052602260045260246000fd5b60006002820490506001821680610fa857607f821691505b60208210811415610fbc57610fbb610f61565b5b50919050565b7f4e487b7100000000000000000000000000000000000000000000000000000000600052601260045260246000fd5b6000610ffc826109be565b9150611007836109be565b92508261101757611016610fc2565b5b828204905092915050565b600061102d826109be565b9150611038836109be565b9250827fffffffffffffffffffffffffffffffffffffffffffffffffffffffffffffffff0382111561106d5761106c610ee9565b5b82820190509291505056fea264697066735822122040b13764d9fd276ada90808c33855bd1a7cb276c2efbeb978d3f19acf2b7647364736f6c634300080b0033",
  "immutableReferences": {},
  "source": "pragma solidity ^0.8.11;\r\n\r\ncontract work {\r\n\r\n    string public name;\r\n    constructor(){\r\n        name = \"abhishek's project\";\r\n    }\r\n\r\n    uint public pcount = 0;\r\n    \r\n    struct ngo{\r\n        uint id;\r\n        string ngoname;\r\n        address owner;\r\n        uint amount;\r\n        uint donated;\r\n        bool donation;\r\n    }\r\n\r\n\r\n    mapping(uint=>ngo) public ngolist;\r\n\r\n    function create(uint _amount,string memory _name) public {\r\n        \r\n        require(bytes(_name).length > 0,'Enter a name');\r\n        require(_amount >0);\r\n\r\n        ngolist[pcount] = ngo(pcount,_name,msg.sender,_amount,0,false);\r\n        pcount++;\r\n    }\r\n\r\n    function getcount() public view returns(uint){\r\n        return pcount;\r\n    }\r\n\r\n    function getdata(uint _id) public view returns (ngo memory){\r\n        ngo memory cur = ngolist[_id];\r\n\r\n        return (cur);\r\n    }\r\n\r\n\r\n\r\n    function donate(uint _id) public payable{\r\n        ngo memory _new = ngolist[_id];\r\n        \r\n        require(msg.value > 0);\r\n\r\n        address _ngo = _new.owner;\r\n\r\n        _new.donated += (msg.value/(1 ether));\r\n        if(_new.donated> _new.amount){\r\n            _new.donation = true;\r\n        }\r\n        ngolist[_id] = _new;\r\n\r\n        payable(address(_ngo)).transfer(msg.value);\r\n\r\n    }\r\n\r\n}",
  "sourcePath": "D:\\projects\\temp2\\Web3-NFT-Marketplace-Auction\\contracts\\work.sol",
  "compiler": {
    "name": "solc",
    "version": "0.8.11+commit.d7f03943.Emscripten.clang"
  },
  "schemaVersion": "3.4.8",
  "updatedAt": "2022-08-21T18:47:24.051Z",
  "networkType": "ethereum",
  "devdoc": {
    "kind": "dev",
    "methods": {},
    "version": 1
  },
  "userdoc": {
    "kind": "user",
    "methods": {},
    "version": 1
  }
}